{
  "contractName": "HelloWorld",
  "abi": [
    {
      "constant": true,
      "inputs": [
        {
          "name": "",
          "type": "address"
        }
      ],
      "name": "accounts",
      "outputs": [
        {
          "name": "",
          "type": "string"
        }
      ],
      "payable": false,
      "stateMutability": "view",
      "type": "function"
    },
    {
      "inputs": [],
      "payable": false,
      "stateMutability": "nonpayable",
      "type": "constructor"
    },
    {
      "constant": true,
      "inputs": [],
      "name": "getMessage",
      "outputs": [
        {
          "name": "",
          "type": "string"
        }
      ],
      "payable": false,
      "stateMutability": "view",
      "type": "function"
    },
    {
      "constant": false,
      "inputs": [
        {
          "name": "name",
          "type": "string"
        }
      ],
      "name": "setName",
      "outputs": [
        {
          "name": "success",
          "type": "bool"
        }
      ],
      "payable": false,
      "stateMutability": "nonpayable",
      "type": "function"
    }
  ],
  "bytecode": "0x608060405234801561001057600080fd5b506040805190810160405280600581526020017f576f726c640000000000000000000000000000000000000000000000000000008152506000908051906020019061005c929190610062565b50610107565b828054600181600116156101000203166002900490600052602060002090601f016020900481019282601f106100a357805160ff19168380011785556100d1565b828001600101855582156100d1579182015b828111156100d05782518255916020019190600101906100b5565b5b5090506100de91906100e2565b5090565b61010491905b808211156101005760008160009055506001016100e8565b5090565b90565b6107d8806101166000396000f3fe608060405260043610610057576000357c0100000000000000000000000000000000000000000000000000000000900463ffffffff1680635e5c06e21461005c578063c47f002714610126578063ce6d41de14610206575b600080fd5b34801561006857600080fd5b506100ab6004803603602081101561007f57600080fd5b81019080803573ffffffffffffffffffffffffffffffffffffffff169060200190929190505050610296565b6040518080602001828103825283818151815260200191508051906020019080838360005b838110156100eb5780820151818401526020810190506100d0565b50505050905090810190601f1680156101185780820380516001836020036101000a031916815260200191505b509250505060405180910390f35b34801561013257600080fd5b506101ec6004803603602081101561014957600080fd5b810190808035906020019064010000000081111561016657600080fd5b82018360208201111561017857600080fd5b8035906020019184600183028401116401000000008311171561019a57600080fd5b91908080601f016020809104026020016040519081016040528093929190818152602001838380828437600081840152601f19601f820116905080830192505050505050509192919290505050610346565b604051808215151515815260200191505060405180910390f35b34801561021257600080fd5b5061021b6103b4565b6040518080602001828103825283818151815260200191508051906020019080838360005b8381101561025b578082015181840152602081019050610240565b50505050905090810190601f1680156102885780820380516001836020036101000a031916815260200191505b509250505060405180910390f35b60016020528060005260406000206000915090508054600181600116156101000203166002900480601f01602080910402602001604051908101604052809291908181526020018280546001816001161561010002031660029004801561033e5780601f106103135761010080835404028352916020019161033e565b820191906000526020600020905b81548152906001019060200180831161032157829003601f168201915b505050505081565b600080825111151561035757600080fd5b81600160003373ffffffffffffffffffffffffffffffffffffffff1673ffffffffffffffffffffffffffffffffffffffff16815260200190815260200160002090805190602001906103aa929190610707565b5060019050919050565b6060806000600160003373ffffffffffffffffffffffffffffffffffffffff1673ffffffffffffffffffffffffffffffffffffffff16815260200190815260200160002080546001816001161561010002031660029004905011610419576000610459565b600160003373ffffffffffffffffffffffffffffffffffffffff1673ffffffffffffffffffffffffffffffffffffffff1681526020019081526020016000205b8054600181600116156101000203166002900480601f0160208091040260200160405190810160405280929190818152602001828054600181600116156101000203166002900480156104ed5780601f106104c2576101008083540402835291602001916104ed565b820191906000526020600020905b8154815290600101906020018083116104d057829003601f168201915b505050505090506105336040805190810160405280600681526020017f48656c6c6f20000000000000000000000000000000000000000000000000000081525082610539565b91505090565b6060808390506060839050606081518351016040519080825280601f01601f19166020018201604052801561057d5781602001600182028038833980820191505090505b5090506060819050600080600091505b85518210156106405785828151811015156105a457fe5b9060200101517f010000000000000000000000000000000000000000000000000000000000000090047f010000000000000000000000000000000000000000000000000000000000000002838280600101935081518110151561060357fe5b9060200101907effffffffffffffffffffffffffffffffffffffffffffffffffffffffffffff1916908160001a905350818060010192505061058d565b600091505b84518210156106f857848281518110151561065c57fe5b9060200101517f010000000000000000000000000000000000000000000000000000000000000090047f01000000000000000000000000000000000000000000000000000000000000000283828060010193508151811015156106bb57fe5b9060200101907effffffffffffffffffffffffffffffffffffffffffffffffffffffffffffff1916908160001a9053508180600101925050610645565b82965050505050505092915050565b828054600181600116156101000203166002900490600052602060002090601f016020900481019282601f1061074857805160ff1916838001178555610776565b82800160010185558215610776579182015b8281111561077557825182559160200191906001019061075a565b5b5090506107839190610787565b5090565b6107a991905b808211156107a557600081600090555060010161078d565b5090565b9056fea165627a7a723058200ceb21a90135b23f780ba7d06fb3876d2f2a8e95806e0f435dc75cc36eac46230029",
  "source": "pragma solidity ^0.5.0;\n\ncontract HelloWorld {\n\nstring defaultName;\nmapping (address => string) public accounts;\n\nconstructor() public{\n    defaultName = 'World';\n}\n\nfunction getMessage() public view returns(string memory){\n    string memory name = bytes(accounts[msg.sender]).length > 0 ? accounts[msg.sender] : defaultName;\n    return concat(\"Hello \" , name);\n}\n\n\nfunction setName(string memory name) public returns(bool success){\n    require(bytes(name).length > 0);\n    accounts[msg.sender] = name;\n    return true;\n}\n\n function concat(string memory _base, string memory _value) internal pure returns (string memory) {\n        bytes memory _baseBytes = bytes(_base);\n        bytes memory _valueBytes = bytes(_value);\n\n        string memory _tmpValue = new string(_baseBytes.length + _valueBytes.length);\n        bytes memory _newValue = bytes(_tmpValue);\n\n        uint i;\n        uint j;\n\n        for(i=0; i<_baseBytes.length; i++) {\n            _newValue[j++] = _baseBytes[i];\n        }\n\n        for(i=0; i<_valueBytes.length; i++) {\n            _newValue[j++] = _valueBytes[i];\n        }\n\n        return string(_newValue);\n    }\n}",
  "sourcePath": "/home/aleste/Proyectos/etherjsdemo/contracts/HelloWorld.sol",
  "compiler": {
    "name": "solc",
    "version": "0.5.0+commit.1d4f565a.Emscripten.clang"
  },
  "schemaVersion": "3.0.2",
  "updatedAt": "2019-02-23T21:13:18.442Z",
  "devdoc": {
    "methods": {}
  },
  "userdoc": {
    "methods": {}
  }
}