{
  "contractName": "NotarizeArba",
  "abi": [
    {
      "anonymous": false,
      "inputs": [
        {
          "indexed": false,
          "name": "successfulMessage",
          "type": "string"
        },
        {
          "indexed": false,
          "name": "documentId",
          "type": "uint256"
        }
      ],
      "name": "newDocumentEvent",
      "type": "event",
      "signature": "0xa18061fbb83ee1b748b5d83887cddfd04e3da6f4c207e07504d4f4d32622e7a9"
    },
    {
      "anonymous": false,
      "inputs": [
        {
          "indexed": false,
          "name": "successfulMessage",
          "type": "string"
        },
        {
          "indexed": false,
          "name": "documentId",
          "type": "string"
        }
      ],
      "name": "deleteDocumentEvent",
      "type": "event",
      "signature": "0xb23ec7a703cb236067aa6b71a4a81c8000174df449cb2169015c9bf99467cbd0"
    },
    {
      "anonymous": false,
      "inputs": [
        {
          "indexed": false,
          "name": "successfulMessage",
          "type": "string"
        },
        {
          "indexed": false,
          "name": "documentId",
          "type": "uint256"
        }
      ],
      "name": "updateDocumentEvent",
      "type": "event",
      "signature": "0x66d7b273f633c827a1128cf5c7f86ba61a38e354d131ab37a777d3238be1d228"
    },
    {
      "anonymous": false,
      "inputs": [
        {
          "indexed": false,
          "name": "successfulMessage",
          "type": "string"
        },
        {
          "indexed": false,
          "name": "documentId",
          "type": "string"
        }
      ],
      "name": "findedDocumentEvent",
      "type": "event",
      "signature": "0x1648dd4780d766aa08cc18ea7022204734d354f8bf89c1ca338d59650cc0f3b4"
    },
    {
      "constant": false,
      "inputs": [
        {
          "name": "owners",
          "type": "address[]"
        },
        {
          "name": "date",
          "type": "string"
        },
        {
          "name": "subject",
          "type": "string"
        },
        {
          "name": "description",
          "type": "string"
        },
        {
          "name": "hash",
          "type": "string"
        },
        {
          "name": "root",
          "type": "uint256"
        }
      ],
      "name": "newNotarize",
      "outputs": [
        {
          "name": "",
          "type": "uint256"
        }
      ],
      "payable": false,
      "stateMutability": "nonpayable",
      "type": "function",
      "signature": "0x10783bc8"
    },
    {
      "constant": false,
      "inputs": [
        {
          "name": "id",
          "type": "uint256"
        },
        {
          "name": "newHash",
          "type": "string"
        },
        {
          "name": "newDescription",
          "type": "string"
        },
        {
          "name": "date",
          "type": "string"
        },
        {
          "name": "ownerDoc",
          "type": "address"
        }
      ],
      "name": "updateDocument",
      "outputs": [
        {
          "name": "",
          "type": "bool"
        }
      ],
      "payable": false,
      "stateMutability": "nonpayable",
      "type": "function",
      "signature": "0x4a0880db"
    },
    {
      "constant": true,
      "inputs": [
        {
          "name": "id",
          "type": "uint256"
        }
      ],
      "name": "getDocument",
      "outputs": [
        {
          "name": "",
          "type": "uint256"
        },
        {
          "name": "",
          "type": "string"
        },
        {
          "name": "",
          "type": "string"
        },
        {
          "name": "",
          "type": "string"
        },
        {
          "name": "",
          "type": "string"
        },
        {
          "name": "",
          "type": "uint256"
        },
        {
          "name": "",
          "type": "uint256"
        }
      ],
      "payable": false,
      "stateMutability": "view",
      "type": "function",
      "signature": "0x3f9b250a"
    },
    {
      "constant": true,
      "inputs": [
        {
          "name": "candidate",
          "type": "address"
        },
        {
          "name": "owners",
          "type": "address[]"
        }
      ],
      "name": "check",
      "outputs": [
        {
          "name": "",
          "type": "bool"
        }
      ],
      "payable": false,
      "stateMutability": "view",
      "type": "function",
      "signature": "0x130aa9e0"
    },
    {
      "constant": true,
      "inputs": [
        {
          "name": "id",
          "type": "uint256"
        }
      ],
      "name": "checkExists",
      "outputs": [
        {
          "name": "",
          "type": "bool"
        }
      ],
      "payable": false,
      "stateMutability": "view",
      "type": "function",
      "signature": "0x0e2e44e8"
    },
    {
      "constant": true,
      "inputs": [
        {
          "name": "id",
          "type": "uint256"
        }
      ],
      "name": "returnLastestDocumentId",
      "outputs": [
        {
          "name": "",
          "type": "uint256"
        }
      ],
      "payable": false,
      "stateMutability": "view",
      "type": "function",
      "signature": "0x7d6c4717"
    }
  ],
  "bytecode": "0x608060405234801561001057600080fd5b50611e20806100206000396000f3fe608060405260043610610078576000357c0100000000000000000000000000000000000000000000000000000000900463ffffffff1680630e2e44e81461007d57806310783bc8146100d0578063130aa9e01461040f5780633f9b250a1461050c5780634a0880db146107195780637d6c471714610951575b600080fd5b34801561008957600080fd5b506100b6600480360360208110156100a057600080fd5b81019080803590602001909291905050506109a0565b604051808215151515815260200191505060405180910390f35b3480156100dc57600080fd5b506103f9600480360360c08110156100f357600080fd5b810190808035906020019064010000000081111561011057600080fd5b82018360208201111561012257600080fd5b8035906020019184602083028401116401000000008311171561014457600080fd5b919080806020026020016040519081016040528093929190818152602001838360200280828437600081840152601f19601f820116905080830192505050505050509192919290803590602001906401000000008111156101a457600080fd5b8201836020820111156101b657600080fd5b803590602001918460018302840111640100000000831117156101d857600080fd5b91908080601f016020809104026020016040519081016040528093929190818152602001838380828437600081840152601f19601f8201169050808301925050505050505091929192908035906020019064010000000081111561023b57600080fd5b82018360208201111561024d57600080fd5b8035906020019184600183028401116401000000008311171561026f57600080fd5b91908080601f016020809104026020016040519081016040528093929190818152602001838380828437600081840152601f19601f820116905080830192505050505050509192919290803590602001906401000000008111156102d257600080fd5b8201836020820111156102e457600080fd5b8035906020019184600183028401116401000000008311171561030657600080fd5b91908080601f016020809104026020016040519081016040528093929190818152602001838380828437600081840152601f19601f8201169050808301925050505050505091929192908035906020019064010000000081111561036957600080fd5b82018360208201111561037b57600080fd5b8035906020019184600183028401116401000000008311171561039d57600080fd5b91908080601f016020809104026020016040519081016040528093929190818152602001838380828437600081840152601f19601f820116905080830192505050505050509192919290803590602001909291905050506109cd565b6040518082815260200191505060405180910390f35b34801561041b57600080fd5b506104f26004803603604081101561043257600080fd5b81019080803573ffffffffffffffffffffffffffffffffffffffff1690602001909291908035906020019064010000000081111561046f57600080fd5b82018360208201111561048157600080fd5b803590602001918460208302840111640100000000831117156104a357600080fd5b919080806020026020016040519081016040528093929190818152602001838360200280828437600081840152601f19601f8201169050808301925050505050505091929192905050506109eb565b604051808215151515815260200191505060405180910390f35b34801561051857600080fd5b506105456004803603602081101561052f57600080fd5b8101908080359060200190929190505050610a6a565b604051808881526020018060200180602001806020018060200187815260200186815260200185810385528b818151815260200191508051906020019080838360005b838110156105a3578082015181840152602081019050610588565b50505050905090810190601f1680156105d05780820380516001836020036101000a031916815260200191505b5085810384528a818151815260200191508051906020019080838360005b838110156106095780820151818401526020810190506105ee565b50505050905090810190601f1680156106365780820380516001836020036101000a031916815260200191505b50858103835289818151815260200191508051906020019080838360005b8381101561066f578082015181840152602081019050610654565b50505050905090810190601f16801561069c5780820380516001836020036101000a031916815260200191505b50858103825288818151815260200191508051906020019080838360005b838110156106d55780820151818401526020810190506106ba565b50505050905090810190601f1680156107025780820380516001836020036101000a031916815260200191505b509b50505050505050505050505060405180910390f35b34801561072557600080fd5b50610937600480360360a081101561073c57600080fd5b81019080803590602001909291908035906020019064010000000081111561076357600080fd5b82018360208201111561077557600080fd5b8035906020019184600183028401116401000000008311171561079757600080fd5b91908080601f016020809104026020016040519081016040528093929190818152602001838380828437600081840152601f19601f820116905080830192505050505050509192919290803590602001906401000000008111156107fa57600080fd5b82018360208201111561080c57600080fd5b8035906020019184600183028401116401000000008311171561082e57600080fd5b91908080601f016020809104026020016040519081016040528093929190818152602001838380828437600081840152601f19601f8201169050808301925050505050505091929192908035906020019064010000000081111561089157600080fd5b8201836020820111156108a357600080fd5b803590602001918460018302840111640100000000831117156108c557600080fd5b91908080601f016020809104026020016040519081016040528093929190818152602001838380828437600081840152601f19601f820116905080830192505050505050509192919290803573ffffffffffffffffffffffffffffffffffffffff169060200190929190505050610d9b565b604051808215151515815260200191505060405180910390f35b34801561095d57600080fd5b5061098a6004803603602081101561097457600080fd5b81019080803590602001909291905050506112b9565b6040518082815260200191505060405180910390f35b60006001600083815260200190815260200160002060080160009054906101000a900460ff169050919050565b60006109df87878787876000886119cf565b90509695505050505050565b600080600090505b8251811015610a5e578373ffffffffffffffffffffffffffffffffffffffff168382815181101515610a2157fe5b9060200190602002015173ffffffffffffffffffffffffffffffffffffffff161415610a51576001915050610a64565b80806001019150506109f3565b50600090505b92915050565b60006060806060806000806001600089815260200190815260200160002060010154600160008a8152602001908152602001600020600201600160008b8152602001908152602001600020600301600160008c8152602001908152602001600020600401600160008d8152602001908152602001600020600501600160008e815260200190815260200160002060070154600160008f815260200190815260200160002060060154858054600181600116156101000203166002900480601f016020809104026020016040519081016040528092919081815260200182805460018160011615610100020316600290048015610ba75780601f10610b7c57610100808354040283529160200191610ba7565b820191906000526020600020905b815481529060010190602001808311610b8a57829003601f168201915b50505050509550848054600181600116156101000203166002900480601f016020809104026020016040519081016040528092919081815260200182805460018160011615610100020316600290048015610c435780601f10610c1857610100808354040283529160200191610c43565b820191906000526020600020905b815481529060010190602001808311610c2657829003601f168201915b50505050509450838054600181600116156101000203166002900480601f016020809104026020016040519081016040528092919081815260200182805460018160011615610100020316600290048015610cdf5780601f10610cb457610100808354040283529160200191610cdf565b820191906000526020600020905b815481529060010190602001808311610cc257829003601f168201915b50505050509350828054600181600116156101000203166002900480601f016020809104026020016040519081016040528092919081815260200182805460018160011615610100020316600290048015610d7b5780601f10610d5057610100808354040283529160200191610d7b565b820191906000526020600020905b815481529060010190602001808311610d5e57829003601f168201915b505050505092509650965096509650965096509650919395979092949650565b6000610e418260016000898152602001908152602001600020600001805480602002602001604051908101604052809291908181526020018280548015610e3757602002820191906000526020600020905b8160009054906101000a900473ffffffffffffffffffffffffffffffffffffffff1673ffffffffffffffffffffffffffffffffffffffff1681526020019060010190808311610ded575b50505050506109eb565b156112ab576000610e51876112b9565b90506000600160008381526020019081526020016000209050610e72611c33565b600160008a8152602001908152602001600020610120604051908101604052908160008201805480602002602001604051908101604052809291908181526020018280548015610f1757602002820191906000526020600020905b8160009054906101000a900473ffffffffffffffffffffffffffffffffffffffff1673ffffffffffffffffffffffffffffffffffffffff1681526020019060010190808311610ecd575b5050505050815260200160018201548152602001600282018054600181600116156101000203166002900480601f016020809104026020016040519081016040528092919081815260200182805460018160011615610100020316600290048015610fc35780601f10610f9857610100808354040283529160200191610fc3565b820191906000526020600020905b815481529060010190602001808311610fa657829003601f168201915b50505050508152602001600382018054600181600116156101000203166002900480601f0160208091040260200160405190810160405280929190818152602001828054600181600116156101000203166002900480156110655780601f1061103a57610100808354040283529160200191611065565b820191906000526020600020905b81548152906001019060200180831161104857829003601f168201915b50505050508152602001600482018054600181600116156101000203166002900480601f0160208091040260200160405190810160405280929190818152602001828054600181600116156101000203166002900480156111075780601f106110dc57610100808354040283529160200191611107565b820191906000526020600020905b8154815290600101906020018083116110ea57829003601f168201915b50505050508152602001600582018054600181600116156101000203166002900480601f0160208091040260200160405190810160405280929190818152602001828054600181600116156101000203166002900480156111a95780601f1061117e576101008083540402835291602001916111a9565b820191906000526020600020905b81548152906001019060200180831161118c57829003601f168201915b5050505050815260200160068201548152602001600782015481526020016008820160009054906101000a900460ff1615151515815250509050611297816000015187846003018054600181600116156101000203166002900480601f0160208091040260200160405190810160405280929190818152602001828054600181600116156101000203166002900480156112845780601f1061125957610100808354040283529160200191611284565b820191906000526020600020905b81548152906001019060200180831161126757829003601f168201915b50505050508a8c60008760e001516119cf565b8260060181905550600193505050506112b0565b600090505b95945050505050565b600080600090506112c8611c33565b6001600085815260200190815260200160002061012060405190810160405290816000820180548060200260200160405190810160405280929190818152602001828054801561136d57602002820191906000526020600020905b8160009054906101000a900473ffffffffffffffffffffffffffffffffffffffff1673ffffffffffffffffffffffffffffffffffffffff1681526020019060010190808311611323575b5050505050815260200160018201548152602001600282018054600181600116156101000203166002900480601f0160208091040260200160405190810160405280929190818152602001828054600181600116156101000203166002900480156114195780601f106113ee57610100808354040283529160200191611419565b820191906000526020600020905b8154815290600101906020018083116113fc57829003601f168201915b50505050508152602001600382018054600181600116156101000203166002900480601f0160208091040260200160405190810160405280929190818152602001828054600181600116156101000203166002900480156114bb5780601f10611490576101008083540402835291602001916114bb565b820191906000526020600020905b81548152906001019060200180831161149e57829003601f168201915b50505050508152602001600482018054600181600116156101000203166002900480601f01602080910402602001604051908101604052809291908181526020018280546001816001161561010002031660029004801561155d5780601f106115325761010080835404028352916020019161155d565b820191906000526020600020905b81548152906001019060200180831161154057829003601f168201915b50505050508152602001600582018054600181600116156101000203166002900480601f0160208091040260200160405190810160405280929190818152602001828054600181600116156101000203166002900480156115ff5780601f106115d4576101008083540402835291602001916115ff565b820191906000526020600020905b8154815290600101906020018083116115e257829003601f168201915b5050505050815260200160068201548152602001600782015481526020016008820160009054906101000a900460ff16151515158152505090505b818160c001511415156119c157600160008260c0015181526020019081526020016000206101206040519081016040529081600082018054806020026020016040519081016040528092919081815260200182805480156116f057602002820191906000526020600020905b8160009054906101000a900473ffffffffffffffffffffffffffffffffffffffff1673ffffffffffffffffffffffffffffffffffffffff16815260200190600101908083116116a6575b5050505050815260200160018201548152602001600282018054600181600116156101000203166002900480601f01602080910402602001604051908101604052809291908181526020018280546001816001161561010002031660029004801561179c5780601f106117715761010080835404028352916020019161179c565b820191906000526020600020905b81548152906001019060200180831161177f57829003601f168201915b50505050508152602001600382018054600181600116156101000203166002900480601f01602080910402602001604051908101604052809291908181526020018280546001816001161561010002031660029004801561183e5780601f106118135761010080835404028352916020019161183e565b820191906000526020600020905b81548152906001019060200180831161182157829003601f168201915b50505050508152602001600482018054600181600116156101000203166002900480601f0160208091040260200160405190810160405280929190818152602001828054600181600116156101000203166002900480156118e05780601f106118b5576101008083540402835291602001916118e0565b820191906000526020600020905b8154815290600101906020018083116118c357829003601f168201915b50505050508152602001600582018054600181600116156101000203166002900480601f0160208091040260200160405190810160405280929190818152602001828054600181600116156101000203166002900480156119825780601f1061195757610100808354040283529160200191611982565b820191906000526020600020905b81548152906001019060200180831161196557829003601f168201915b5050505050815260200160068201548152602001600782015481526020016008820160009054906101000a900460ff161515151581525050905061163a565b806020015192505050919050565b6000806119da611c1d565b90506119e5816109a0565b1515611b9b5760008314156119f8578092505b610120604051908101604052808a815260200182815260200189815260200188815260200187815260200186815260200185815260200184815260200160011515815250600160008381526020019081526020016000206000820151816000019080519060200190611a6b929190611c82565b50602082015181600101556040820151816002019080519060200190611a92929190611d0c565b506060820151816003019080519060200190611aaf929190611d0c565b506080820151816004019080519060200190611acc929190611d0c565b5060a0820151816005019080519060200190611ae9929190611d0c565b5060c0820151816006015560e082015181600701556101008201518160080160006101000a81548160ff0219169083151502179055509050507fa18061fbb83ee1b748b5d83887cddfd04e3da6f4c207e07504d4f4d32622e7a9816040518080602001838152602001828103825260118152602001807f4e6f746172697a656420737563636573730000000000000000000000000000008152506020019250505060405180910390a180915050611c12565b7fa18061fbb83ee1b748b5d83887cddfd04e3da6f4c207e07504d4f4d32622e7a960006040518080602001838152602001828103825260108152602001807f204e6f746172697a65204661696c2020000000000000000000000000000000008152506020019250505060405180910390a160009150505b979650505050505050565b6000600160025401600281905550600254905090565b6101206040519081016040528060608152602001600081526020016060815260200160608152602001606081526020016060815260200160008152602001600081526020016000151581525090565b828054828255906000526020600020908101928215611cfb579160200282015b82811115611cfa5782518260006101000a81548173ffffffffffffffffffffffffffffffffffffffff021916908373ffffffffffffffffffffffffffffffffffffffff16021790555091602001919060010190611ca2565b5b509050611d089190611d8c565b5090565b828054600181600116156101000203166002900490600052602060002090601f016020900481019282601f10611d4d57805160ff1916838001178555611d7b565b82800160010185558215611d7b579182015b82811115611d7a578251825591602001919060010190611d5f565b5b509050611d889190611dcf565b5090565b611dcc91905b80821115611dc857600081816101000a81549073ffffffffffffffffffffffffffffffffffffffff021916905550600101611d92565b5090565b90565b611df191905b80821115611ded576000816000905550600101611dd5565b5090565b9056fea165627a7a723058203f90663141a2a3ecee80208a9ab330748f8009bae764573ebb0cd2aaa6a6ca430029",
  "source": "pragma solidity >=0.4.23 <0.6.0;\n\n\n/*\n    (zero) 0 value in int256 meaning null\n*/\n\ncontract NotarizeArba {\n\n    address owner;\n    mapping (uint256 => Document) private documents;\n    uint256 secuence ;\n    struct Document {\n        address[] owners;\n        uint256 id;\n        string date;\n        string subject;\n        string description;\n        string hash;\n        uint256 next;\n        uint256 root;\n        bool available ;\n    }\n\n    event newDocumentEvent(string successfulMessage, uint256 documentId );\n    event deleteDocumentEvent(string successfulMessage, string documentId);\n    event updateDocumentEvent(string successfulMessage, uint documentId);\n    event findedDocumentEvent(string successfulMessage, string documentId);\n\n    function newNotarize(address[] memory owners ,string memory date ,string memory subject ,string memory description , string memory hash , uint256 root )public  returns (uint256){\n        return  newDocument( owners , date , subject , description ,  hash , 0 ,root) ;\n    }\n\n    function newDocument(address[] memory owners ,string memory date ,string memory subject ,string memory description , string memory hash , uint256 next ,uint256 root )  internal returns (uint256){\n        uint256 id = getId();\n        if(!checkExists(id)) {\n                if(root == 0){\n                    root=id;\n                }\n                documents[id]=Document(owners,id,date,subject,description,hash,next,root,true);\n                emit newDocumentEvent(\"Notarized success\", id );\n                return id;\n        }\n        emit newDocumentEvent(\" Notarize Fail  \" , 0 );\n        return 0;\n    }\n\n    function updateDocument(uint256 id,string memory newHash,string memory newDescription,string memory date, address ownerDoc) public returns (bool){\n        if (check(ownerDoc , documents[id].owners)){\n                uint256  idFinded ;\n                idFinded = returnLastestDocumentId(id);\n                Document storage doc = documents[idFinded];\n                Document memory local = documents[id];\n                doc.next=newDocument(local.owners,date,doc.subject,newDescription,newHash,0,local.root);\n                return true;\n        } else {\n                return false;\n                }\n    }\n\n   function getDocument(uint256 id) view public  returns (uint256 ,string memory,string memory ,string memory , string memory,uint256 ,uint256 ) {\n        return (documents[id].id ,documents[id].date ,documents[id].subject , documents[id].description, documents[id].hash, documents[id].root ,documents[id].next) ;\n    }\n\n   function check( address  candidate , address[] memory owners ) view public returns (bool){\n        for (uint i = 0; i < owners.length; i++) {\n            if(owners[i] == candidate){\n                return true;\n            }\n        }\n        return false ;\n    }\n\n    function checkExists(uint256  id) public view returns (bool ){\n        return documents[id].available;\n    }\n\n    function returnLastestDocumentId(uint256 id) view public returns (uint256 ){\n            uint256  limite= 0;\n            Document memory doc = documents[id];\n            while (doc.next != limite){\n                    doc=documents[doc.next];\n            }\n            return (doc.id);\n    }\n\n    function getId()internal returns(uint256) {\n         secuence = secuence + 1 ;\n            return secuence;\n    }\n\n    function getActual()internal returns(uint256) {\n            return secuence;\n\n    }\n }",
  "sourcePath": "/home/aleste/Proyectos/etherjsdemo/contracts/NotarizeArba.sol",
  "compiler": {
    "name": "solc",
    "version": "0.5.0+commit.1d4f565a.Emscripten.clang"
  },
  "schemaVersion": "3.0.2",
  "updatedAt": "2019-02-24T14:59:08.377Z",
  "devdoc": {
    "methods": {}
  },
  "userdoc": {
    "methods": {}
  }
}